{
  "contractName": "Auctions",
  "abi": [
    {
      "constant": true,
      "inputs": [
        {
          "name": "",
          "type": "uint256"
        }
      ],
      "name": "auctions",
      "outputs": [
        {
          "name": "name",
          "type": "string"
        },
        {
          "name": "metadata",
          "type": "string"
        },
        {
          "name": "price",
          "type": "uint256"
        },
        {
          "name": "tokenId",
          "type": "uint256"
        },
        {
          "name": "owner",
          "type": "address"
        },
        {
          "name": "repoAddress",
          "type": "address"
        },
        {
          "name": "active",
          "type": "bool"
        },
        {
          "name": "finalized",
          "type": "bool"
        }
      ],
      "payable": false,
      "stateMutability": "view",
      "type": "function"
    },
    {
      "constant": true,
      "inputs": [
        {
          "name": "",
          "type": "address"
        },
        {
          "name": "",
          "type": "uint256"
        }
      ],
      "name": "auctionOwner",
      "outputs": [
        {
          "name": "",
          "type": "uint256"
        }
      ],
      "payable": false,
      "stateMutability": "view",
      "type": "function"
    },
    {
      "payable": false,
      "stateMutability": "nonpayable",
      "type": "fallback"
    },
    {
      "anonymous": false,
      "inputs": [
        {
          "indexed": false,
          "name": "_owner",
          "type": "address"
        },
        {
          "indexed": false,
          "name": "_auctionId",
          "type": "uint256"
        }
      ],
      "name": "AuctionCreated",
      "type": "event"
    },
    {
      "anonymous": false,
      "inputs": [
        {
          "indexed": false,
          "name": "_owner",
          "type": "address"
        },
        {
          "indexed": false,
          "name": "_auctionId",
          "type": "uint256"
        }
      ],
      "name": "AuctionFinalized",
      "type": "event"
    },
    {
      "anonymous": false,
      "inputs": [
        {
          "indexed": false,
          "name": "_owner",
          "type": "address"
        },
        {
          "indexed": false,
          "name": "_auctionId",
          "type": "uint256"
        }
      ],
      "name": "AuctionCancled",
      "type": "event"
    },
    {
      "constant": false,
      "inputs": [
        {
          "name": "_repoAddress",
          "type": "address"
        },
        {
          "name": "_tokenId",
          "type": "uint256"
        },
        {
          "name": "_auctionTitle",
          "type": "string"
        },
        {
          "name": "_metadata",
          "type": "string"
        },
        {
          "name": "_price",
          "type": "uint256"
        }
      ],
      "name": "createAuction",
      "outputs": [
        {
          "name": "",
          "type": "bool"
        }
      ],
      "payable": false,
      "stateMutability": "nonpayable",
      "type": "function"
    },
    {
      "constant": false,
      "inputs": [
        {
          "name": "_auctionId",
          "type": "uint256"
        },
        {
          "name": "_to",
          "type": "address"
        }
      ],
      "name": "finalizeAution",
      "outputs": [],
      "payable": false,
      "stateMutability": "nonpayable",
      "type": "function"
    },
    {
      "constant": false,
      "inputs": [
        {
          "name": "_auctionId",
          "type": "uint256"
        },
        {
          "name": "_to",
          "type": "address"
        }
      ],
      "name": "cancleAuction",
      "outputs": [],
      "payable": false,
      "stateMutability": "nonpayable",
      "type": "function"
    },
    {
      "constant": true,
      "inputs": [],
      "name": "getCount",
      "outputs": [
        {
          "name": "",
          "type": "uint256"
        }
      ],
      "payable": false,
      "stateMutability": "view",
      "type": "function"
    },
    {
      "constant": true,
      "inputs": [
        {
          "name": "_owner",
          "type": "address"
        }
      ],
      "name": "getAuctionsOf",
      "outputs": [
        {
          "name": "",
          "type": "uint256[]"
        }
      ],
      "payable": false,
      "stateMutability": "view",
      "type": "function"
    },
    {
      "constant": true,
      "inputs": [
        {
          "name": "_owner",
          "type": "address"
        }
      ],
      "name": "getAuctionsCountOfOwner",
      "outputs": [
        {
          "name": "",
          "type": "uint256"
        }
      ],
      "payable": false,
      "stateMutability": "view",
      "type": "function"
    },
    {
      "constant": true,
      "inputs": [
        {
          "name": "_auctionId",
          "type": "uint256"
        }
      ],
      "name": "getAuctionById",
      "outputs": [
        {
          "name": "name",
          "type": "string"
        },
        {
          "name": "price",
          "type": "uint256"
        },
        {
          "name": "metadata",
          "type": "string"
        },
        {
          "name": "tokenId",
          "type": "uint256"
        },
        {
          "name": "repoAddress",
          "type": "address"
        },
        {
          "name": "owner",
          "type": "address"
        },
        {
          "name": "active",
          "type": "bool"
        },
        {
          "name": "finalized",
          "type": "bool"
        }
      ],
      "payable": false,
      "stateMutability": "view",
      "type": "function"
    }
  ],
  "bytecode": "0x608060405234801561001057600080fd5b50611a7c806100206000396000f300608060405260043610610099576000357c0100000000000000000000000000000000000000000000000000000000900463ffffffff1680630318d22b146100ab57806318111ada146100f8578063571a26a0146102945780639472559f14610430578063a87d942c1461052b578063b1b61bfa14610556578063c8756cda146105ee578063d56aa5581461064f578063dad18bf7146106a6575b3480156100a557600080fd5b50600080fd5b3480156100b757600080fd5b506100f660048036038101908080359060200190929190803573ffffffffffffffffffffffffffffffffffffffff1690602001909291905050506106f3565b005b34801561010457600080fd5b5061012360048036038101908080359060200190929190505050610a5c565b6040518080602001898152602001806020018881526020018773ffffffffffffffffffffffffffffffffffffffff1673ffffffffffffffffffffffffffffffffffffffff1681526020018673ffffffffffffffffffffffffffffffffffffffff1673ffffffffffffffffffffffffffffffffffffffff168152602001851515151581526020018415151515815260200183810383528b818151815260200191508051906020019080838360005b838110156101eb5780820151818401526020810190506101d0565b50505050905090810190601f1680156102185780820380516001836020036101000a031916815260200191505b50838103825289818151815260200191508051906020019080838360005b83811015610251578082015181840152602081019050610236565b50505050905090810190601f16801561027e5780820380516001836020036101000a031916815260200191505b509a505050505050505050505060405180910390f35b3480156102a057600080fd5b506102bf60048036038101908080359060200190929190505050610d22565b6040518080602001806020018981526020018881526020018773ffffffffffffffffffffffffffffffffffffffff1673ffffffffffffffffffffffffffffffffffffffff1681526020018673ffffffffffffffffffffffffffffffffffffffff1673ffffffffffffffffffffffffffffffffffffffff168152602001851515151581526020018415151515815260200183810383528b818151815260200191508051906020019080838360005b8381101561038757808201518184015260208101905061036c565b50505050905090810190601f1680156103b45780820380516001836020036101000a031916815260200191505b5083810382528a818151815260200191508051906020019080838360005b838110156103ed5780820151818401526020810190506103d2565b50505050905090810190601f16801561041a5780820380516001836020036101000a031916815260200191505b509a505050505050505050505060405180910390f35b34801561043c57600080fd5b50610511600480360381019080803573ffffffffffffffffffffffffffffffffffffffff16906020019092919080359060200190929190803590602001908201803590602001908080601f0160208091040260200160405190810160405280939291908181526020018383808284378201915050505050509192919290803590602001908201803590602001908080601f016020809104026020016040519081016040528093929190818152602001838380828437820191505050505050919291929080359060200190929190505050610f03565b604051808215151515815260200191505060405180910390f35b34801561053757600080fd5b506105406112eb565b6040518082815260200191505060405180910390f35b34801561056257600080fd5b50610597600480360381019080803573ffffffffffffffffffffffffffffffffffffffff1690602001909291905050506112f7565b6040518080602001828103825283818151815260200191508051906020019060200280838360005b838110156105da5780820151818401526020810190506105bf565b505050509050019250505060405180910390f35b3480156105fa57600080fd5b50610639600480360381019080803573ffffffffffffffffffffffffffffffffffffffff16906020019092919080359060200190929190505050611393565b6040518082815260200191505060405180910390f35b34801561065b57600080fd5b50610690600480360381019080803573ffffffffffffffffffffffffffffffffffffffff1690602001909291905050506113c3565b6040518082815260200191505060405180910390f35b3480156106b257600080fd5b506106f160048036038101908080359060200190929190803573ffffffffffffffffffffffffffffffffffffffff16906020019092919050505061140f565b005b6106fb611935565b60008381548110151561070a57fe5b90600052602060002090600602016101006040519081016040529081600082018054600181600116156101000203166002900480601f0160208091040260200160405190810160405280929190818152602001828054600181600116156101000203166002900480156107be5780601f10610793576101008083540402835291602001916107be565b820191906000526020600020905b8154815290600101906020018083116107a157829003601f168201915b50505050508152602001600182018054600181600116156101000203166002900480601f0160208091040260200160405190810160405280929190818152602001828054600181600116156101000203166002900480156108605780601f1061083557610100808354040283529160200191610860565b820191906000526020600020905b81548152906001019060200180831161084357829003601f168201915b5050505050815260200160028201548152602001600382015481526020016004820160009054906101000a900473ffffffffffffffffffffffffffffffffffffffff1673ffffffffffffffffffffffffffffffffffffffff1673ffffffffffffffffffffffffffffffffffffffff1681526020016005820160009054906101000a900473ffffffffffffffffffffffffffffffffffffffff1673ffffffffffffffffffffffffffffffffffffffff1673ffffffffffffffffffffffffffffffffffffffff1681526020016005820160149054906101000a900460ff161515151581526020016005820160159054906101000a900460ff161515151581525050905061097530838360a001518460600151611778565b15610a57576000808481548110151561098a57fe5b906000526020600020906006020160050160146101000a81548160ff02191690831515021790555060016000848154811015156109c357fe5b906000526020600020906006020160050160156101000a81548160ff0219169083151502179055507f357afab190ee87fe0ef1c717f2728d2904d9e415a069d99f4d9382873cb3279d3384604051808373ffffffffffffffffffffffffffffffffffffffff1673ffffffffffffffffffffffffffffffffffffffff1681526020018281526020019250505060405180910390a15b505050565b6060600060606000806000806000610a72611935565b60008a815481101515610a8157fe5b90600052602060002090600602016101006040519081016040529081600082018054600181600116156101000203166002900480601f016020809104026020016040519081016040528092919081815260200182805460018160011615610100020316600290048015610b355780601f10610b0a57610100808354040283529160200191610b35565b820191906000526020600020905b815481529060010190602001808311610b1857829003601f168201915b50505050508152602001600182018054600181600116156101000203166002900480601f016020809104026020016040519081016040528092919081815260200182805460018160011615610100020316600290048015610bd75780601f10610bac57610100808354040283529160200191610bd7565b820191906000526020600020905b815481529060010190602001808311610bba57829003601f168201915b5050505050815260200160028201548152602001600382015481526020016004820160009054906101000a900473ffffffffffffffffffffffffffffffffffffffff1673ffffffffffffffffffffffffffffffffffffffff1673ffffffffffffffffffffffffffffffffffffffff1681526020016005820160009054906101000a900473ffffffffffffffffffffffffffffffffffffffff1673ffffffffffffffffffffffffffffffffffffffff1673ffffffffffffffffffffffffffffffffffffffff1681526020016005820160149054906101000a900460ff161515151581526020016005820160159054906101000a900460ff161515151581525050905080600001518160400151826020015183606001518460a0015185608001518660c001518760e001518797508595509850985098509850985098509850985050919395975091939597565b600081815481101515610d3157fe5b9060005260206000209060060201600091509050806000018054600181600116156101000203166002900480601f016020809104026020016040519081016040528092919081815260200182805460018160011615610100020316600290048015610ddd5780601f10610db257610100808354040283529160200191610ddd565b820191906000526020600020905b815481529060010190602001808311610dc057829003601f168201915b505050505090806001018054600181600116156101000203166002900480601f016020809104026020016040519081016040528092919081815260200182805460018160011615610100020316600290048015610e7b5780601f10610e5057610100808354040283529160200191610e7b565b820191906000526020600020905b815481529060010190602001808311610e5e57829003601f168201915b5050505050908060020154908060030154908060040160009054906101000a900473ffffffffffffffffffffffffffffffffffffffff16908060050160009054906101000a900473ffffffffffffffffffffffffffffffffffffffff16908060050160149054906101000a900460ff16908060050160159054906101000a900460ff16905088565b600080610f0e611935565b878760008273ffffffffffffffffffffffffffffffffffffffff16636352211e836040518263ffffffff167c010000000000000000000000000000000000000000000000000000000002815260040180828152602001915050602060405180830381600087803b158015610f8157600080fd5b505af1158015610f95573d6000803e3d6000fd5b505050506040513d6020811015610fab57600080fd5b810190808051906020019092919050505090503073ffffffffffffffffffffffffffffffffffffffff168173ffffffffffffffffffffffffffffffffffffffff16141515610ff857600080fd5b600080549050945088846000018190525086846040018181525050878460200181905250898460600181815250508a8460a0019073ffffffffffffffffffffffffffffffffffffffff16908173ffffffffffffffffffffffffffffffffffffffff168152505033846080019073ffffffffffffffffffffffffffffffffffffffff16908173ffffffffffffffffffffffffffffffffffffffff168152505060018460c001901515908115158152505060008460e00190151590811515815250506000849080600181540180825580915050906001820390600052602060002090600602016000909192909190915060008201518160000190805190602001906111029291906119ab565b50602082015181600101908051906020019061111f9291906119ab565b50604082015181600201556060820151816003015560808201518160040160006101000a81548173ffffffffffffffffffffffffffffffffffffffff021916908373ffffffffffffffffffffffffffffffffffffffff16021790555060a08201518160050160006101000a81548173ffffffffffffffffffffffffffffffffffffffff021916908373ffffffffffffffffffffffffffffffffffffffff16021790555060c08201518160050160146101000a81548160ff02191690831515021790555060e08201518160050160156101000a81548160ff021916908315150217905550505050600160003373ffffffffffffffffffffffffffffffffffffffff1673ffffffffffffffffffffffffffffffffffffffff1681526020019081526020016000208590806001815401808255809150509060018203906000526020600020016000909192909190915055507f3249a06bd478adf780bb7930214ad005e9cfa517d63221c0b77f27199d1a58b33386604051808373ffffffffffffffffffffffffffffffffffffffff1673ffffffffffffffffffffffffffffffffffffffff1681526020018281526020019250505060405180910390a160019550505050505095945050505050565b60008080549050905090565b606080600160008473ffffffffffffffffffffffffffffffffffffffff1673ffffffffffffffffffffffffffffffffffffffff16815260200190815260200160002080548060200260200160405190810160405280929190818152602001828054801561138357602002820191906000526020600020905b81548152602001906001019080831161136f575b5050505050905080915050919050565b6001602052816000526040600020818154811015156113ae57fe5b90600052602060002001600091509150505481565b6000600160008373ffffffffffffffffffffffffffffffffffffffff1673ffffffffffffffffffffffffffffffffffffffff168152602001908152602001600020805490509050919050565b611417611935565b60008381548110151561142657fe5b90600052602060002090600602016101006040519081016040529081600082018054600181600116156101000203166002900480601f0160208091040260200160405190810160405280929190818152602001828054600181600116156101000203166002900480156114da5780601f106114af576101008083540402835291602001916114da565b820191906000526020600020905b8154815290600101906020018083116114bd57829003601f168201915b50505050508152602001600182018054600181600116156101000203166002900480601f01602080910402602001604051908101604052809291908181526020018280546001816001161561010002031660029004801561157c5780601f106115515761010080835404028352916020019161157c565b820191906000526020600020905b81548152906001019060200180831161155f57829003601f168201915b5050505050815260200160028201548152602001600382015481526020016004820160009054906101000a900473ffffffffffffffffffffffffffffffffffffffff1673ffffffffffffffffffffffffffffffffffffffff1673ffffffffffffffffffffffffffffffffffffffff1681526020016005820160009054906101000a900473ffffffffffffffffffffffffffffffffffffffff1673ffffffffffffffffffffffffffffffffffffffff1673ffffffffffffffffffffffffffffffffffffffff1681526020016005820160149054906101000a900460ff161515151581526020016005820160159054906101000a900460ff161515151581525050905061169130838360a001518460600151611778565b156117735760016000848154811015156116a757fe5b906000526020600020906006020160050160146101000a81548160ff021916908315150217905550600080848154811015156116df57fe5b906000526020600020906006020160050160156101000a81548160ff0219169083151502179055507fa6d3c8e837d50e6c7644e840482d8f68990852ffb3581d80e0030d0b1cee328f8284604051808373ffffffffffffffffffffffffffffffffffffffff1673ffffffffffffffffffffffffffffffffffffffff1681526020018281526020019250505060405180910390a15b505050565b6000808390508073ffffffffffffffffffffffffffffffffffffffff1663095ea7b386856040518363ffffffff167c0100000000000000000000000000000000000000000000000000000000028152600401808373ffffffffffffffffffffffffffffffffffffffff1673ffffffffffffffffffffffffffffffffffffffff16815260200182815260200192505050600060405180830381600087803b15801561182157600080fd5b505af1158015611835573d6000803e3d6000fd5b505050508073ffffffffffffffffffffffffffffffffffffffff166323b872dd8787866040518463ffffffff167c0100000000000000000000000000000000000000000000000000000000028152600401808473ffffffffffffffffffffffffffffffffffffffff1673ffffffffffffffffffffffffffffffffffffffff1681526020018373ffffffffffffffffffffffffffffffffffffffff1673ffffffffffffffffffffffffffffffffffffffff1681526020018281526020019350505050600060405180830381600087803b15801561191057600080fd5b505af1158015611924573d6000803e3d6000fd5b505050506001915050949350505050565b6101006040519081016040528060608152602001606081526020016000815260200160008152602001600073ffffffffffffffffffffffffffffffffffffffff168152602001600073ffffffffffffffffffffffffffffffffffffffff1681526020016000151581526020016000151581525090565b828054600181600116156101000203166002900490600052602060002090601f016020900481019282601f106119ec57805160ff1916838001178555611a1a565b82800160010185558215611a1a579182015b82811115611a195782518255916020019190600101906119fe565b5b509050611a279190611a2b565b5090565b611a4d91905b80821115611a49576000816000905550600101611a31565b5090565b905600a165627a7a72305820f5f9cfda1f2c2fdb67e9ce6929846a4df62506b220d919b68b2c0c272e3735ec0029",
  "source": "pragma solidity ^0.4.24;\r\n\r\nimport \"./MyNFT.sol\";\r\n\r\ncontract Auctions {             // 등록된 구매 및 판매 물품들\r\n    struct Auction {            // 물품\r\n        string name;            // 물품 이름\r\n        string metadata;        // 메타데이터: ipfs hash\r\n        uint256 price;          // 가격\r\n        uint256 tokenId;        // 토큰 아이디\r\n        address owner;          // 소유자\r\n        address repoAddress;    // nft 컨트랙트 어드레스\r\n        bool active;            // 판매 활성화 여부\r\n        bool finalized;         // 판매 종료 여부\r\n    }\r\n\r\n    // 구조체 Auction을 저장하는 전체 배열\r\n    Auction[] public auctions; \r\n    // 각 소유자 어드레스가 갖고있는 tokenId의 배열에 대한 맵핑\r\n    mapping(address => uint[]) public auctionOwner; \r\n\r\n    // 컨트랙트에 직접 송금하지 못하도록 함\r\n    function() public {\r\n        revert(); \r\n    }\r\n\r\n    // 해당 컨트랙트가 특정 NFT 소유권을 갖고 있는지 확인\r\n    modifier constractIsNFTOwner(address _repoAddress, uint256 _tokenId) {\r\n        // MyNFT()에 어드레스 넣고, ownerOf로 해당 토큰의 소유자 어드레스를 가져옴\r\n        address nftOwner = MyNFT(_repoAddress).ownerOf(_tokenId);\r\n        // 해당 토큰의 소유자 어드레스 == Auctions의 컨트랙트 어드레스 => 일치하면 다음으로\r\n        require(nftOwner == address(this));\r\n        _;\r\n    }\r\n\r\n    // 새 옥션 생성\r\n    function createAuction(address _repoAddress, uint256 _tokenId, \r\n    string _auctionTitle, string _metadata, uint256 _price) public\r\n    constractIsNFTOwner(_repoAddress, _tokenId) returns(bool) { \r\n        // 토큰이 Auctions 컨트랙트 어드레스의 소유인지 확인 => 아니면 못들어옴\r\n        \r\n        uint auctionId = auctions.length;\r\n        \r\n        Auction memory newAuction;\r\n        newAuction.name = _auctionTitle;\r\n        newAuction.price = _price;\r\n        \r\n        newAuction.metadata = _metadata;\r\n        newAuction.tokenId = _tokenId;\r\n        newAuction.repoAddress = _repoAddress;\r\n        \r\n        newAuction.owner = msg.sender;\r\n        \r\n        newAuction.active = true;\r\n        newAuction.finalized = false;\r\n\r\n        // 새 옥션을 배열에 추가하고, Owner맵에 새 auctionId도 추가함\r\n        auctions.push(newAuction);\r\n        auctionOwner[msg.sender].push(auctionId);\r\n\r\n        // AuctionCreated 이벤트 송출\r\n        emit AuctionCreated(msg.sender, auctionId);\r\n        return true;\r\n    }\r\n\r\n    // 옥션을 소유자에게 전달\r\n    function finalizeAution(uint _auctionId, address _to) public {\r\n        // memory: 휘발성, 잠시 메모리에 저장됨\r\n        Auction memory myAuction = auctions[_auctionId];\r\n\r\n        // 옥션의 NFT컨트랙트 어드레스(_repoAddress), _tokenId, \r\n        // 현재 컨트랙트 어드레스(address(this)), 받는 어드레스(_to)\r\n        // 받는 어드레스에 소유권이 승인되고 전달되는 함수\r\n        if(approveAndTransfer(address(this), _to, myAuction.repoAddress, myAuction.tokenId)) {\r\n            auctions[_auctionId].active = false;    // 액티브 완료\r\n            auctions[_auctionId].finalized = true; // 해당 옥션의 상태는 종료\r\n\r\n            // AuctionFinalized 이벤트 전달\r\n            emit AuctionFinalized(msg.sender, _auctionId);\r\n        }\r\n    }\r\n\r\n    // 옥션 취소 \r\n    function cancleAuction(uint _auctionId, address _to) public {\r\n        // to: 기존 판매자, address(this): 구매자\r\n        Auction memory refundAuction = auctions[_auctionId];\r\n\r\n        if(approveAndTransfer(address(this), _to, refundAuction.repoAddress, refundAuction.tokenId)) {\r\n            // 환불이 완료된 시점(owner = 판매자)\r\n            auctions[_auctionId].active = true; // 판매 활성화\r\n            auctions[_auctionId].finalized = false; // 해당 옥션 상태 종료 X\r\n\r\n            // 기존 판매자에게 구매 취소 이벤트 전달\r\n            emit AuctionCancled(_to, _auctionId);\r\n        }\r\n    }\r\n\r\n    function approveAndTransfer(address _from, address _to, address _repoAddress, uint256 _tokenId) \r\n    internal returns (bool) {   // internal: 컨트랙트 내부에서만 호출 가능\r\n        // MyNFT 컨트랙트에 컨트랙트 어드레스 넣고 인스턴스 가져옴\r\n        MyNFT remoteContract = MyNFT(_repoAddress);\r\n       \r\n        // approve(_to, _tokenId): 해당 토큰(_tokenId)을 받는 어드레스(_to)를 승인\r\n        remoteContract.approve(_to, _tokenId);\r\n        // transferFrom(_from, _to, _tokenId): 해당 어드레스(_to)로 전송\r\n        remoteContract.transferFrom(_from, _to, _tokenId);\r\n        return true;\r\n    }\r\n\r\n    // 옥션 전체 개수 반환\r\n    function getCount() public constant returns(uint) {\r\n        return auctions.length;\r\n    }\r\n\r\n    // 소유자의 옥션 리스트 반환\r\n    function getAuctionsOf(address _owner) public constant returns(uint[]) {\r\n        uint[] memory ownedAuctions = auctionOwner[_owner];\r\n        return ownedAuctions;\r\n    }\r\n\r\n    // 소유자 옥션 리스트의 개수 반환\r\n    function getAuctionsCountOfOwner(address _owner) public constant returns(uint) {\r\n        return auctionOwner[_owner].length;\r\n    }\r\n\r\n    // 특정 id에 대한 옥션을 반환\r\n    function getAuctionById(uint _auctionId) public constant \r\n    returns(string name, uint256 price, string metadata, uint256 tokenId, address repoAddress, address owner, bool active, bool finalized) {\r\n        Auction memory auc = auctions[_auctionId];\r\n        return (\r\n            auc.name,\r\n            auc.price,\r\n            auc.metadata,\r\n            auc.tokenId,\r\n            auc.repoAddress,\r\n            auc.owner,\r\n            auc.active,\r\n            auc.finalized\r\n        );\r\n    }\r\n\r\n    // 이벤트 정의\r\n    event AuctionCreated(address _owner, uint _auctionId);\r\n    event AuctionFinalized(address _owner, uint _auctionId);\r\n    event AuctionCancled(address _owner, uint _auctionId);\r\n}",
  "sourcePath": "C:\\Users\\USER\\Desktop\\sejongshare\\contracts\\Auctions.sol",
  "compiler": {
    "name": "solc",
    "version": "0.4.25+commit.59dbf8f1.Emscripten.clang"
  },
  "schemaVersion": "2.0.2",
  "updatedAt": "2020-12-22T05:02:32.755Z"
}